:02000002D0002C
:1040000000400D00047F0D00000006000C000501BB
:084010000401BD0B00000000DB
:044018004C710D00DA
:1040200009480A49884208B505D0094A824202D0A7
:10403000121A03F049F80748074A0021121A03F040
:1040400051F8014808BD00BF44E50320747E0D000F
:10405000ACE50320B0E50320F4E7032070B5074E7C
:10406000074C01F0A5FFA41BA4080025A54200D120
:1040700070BD56F8043B98470135F7E74C7E0D00BC
:10408000707E0D0000F026B808B500F045F8BDE8D8
:10409000084001F04FBF01F04BBC01F051BC0000E3
:1040A00008B5034A00210C2001F0A6FBFEE700BF83
:1040B00079550D000078B0FA80F04009704701236F
:1040C0000370704710B50446006808B101F038FC71
:1040D000204610BD10B50E4C00210F2002F094FABE
:1040E000204600F039FD204600F0F8FE2046012170
:1040F00000F0E3FC00224FF0011320460549C4E91B
:10410000042301F0A0FD2046BDE8104001F052B9A3
:10411000C0E5032060710D0038B50F2002F0B1FA40
:10412000354B188080B202F05FFC2FA3D3E9002347
:1041300002F0C4FC2EA3D3E9002302F0E9FD2F4BCB
:1041400004460D46C3E9004500222D4B2D4C2E4D53
:1041500002F0FCFA2D4B002202F0B0FCC5E9000190
:10416000204600F0BBFE2046012100F0A6FC002204
:104170004FF00113C4E904232549204601F050FD06
:1041800095ED000B0221204601F04EFE214920460C
:1041900001F059FD204601F04AFD1F49204601F07B
:1041A0003FFDD5E900011D4B002202F087FC1C4BAE
:1041B000002202F0ADFD1B4B002202F0C9FA41ECD7
:1041C000100B0221204601F02FFE1749204601F076
:1041D0003AFD204601F0EEF8BDE838404FF4967005
:1041E00001F06EBEAFF300806666666666660A40E2
:1041F0000000000000FEAF4030E6032040E6032050
:104200000000E03FC0E5032038E6032000005940ED
:104210006E710D0078710D007B710D000000224061
:10422000000014400000404088710D0038B50F4C6C
:104230000F4BA36000252560A580A571032001F028
:10424000E3FA0C4A0C4920460C4C02F071FA29465C
:10425000012001F0E9FA0721204600F04FFC20463A
:10426000044A0749BDE8384002F062BAB4E50320C9
:104270000000FFFFB0E50320C5400D00C0E50320AE
:10428000C94A0D00704710B51021044602F055FAD6
:10429000204610BD0EB403B503AB002153F8042B28
:1042A000019301F0C4FD02B05DF804EB03B0704768
:1042B00073B5044608462279A36832B1A3B90B4905
:1042C00002B0BDE8704001F0ABBC094A267B094D45
:1042D0000949647B012E18BF2946CDE9001407491E
:1042E000FFF7D8FF02B070BD054AEFE79D710D00E2
:1042F00077710D0099710D0095710D00B3710D006E
:104300008C710D002DE9F04F85B01F46BDF9388046
:10431000BDF83C30A8EB0209A7EB010AB9F1000F88
:10432000B8BFC9F10009BAF1000FB8BFCAF1000A5D
:10433000D14583460C46154604DD3A462C46474691
:104340000D469046BC4205DD2A464546904622462B
:104350003C4617463E1BB2B20092A8EB0502002A6B
:10436000B8BF52420192C6F3C03202FA86F6454502
:10437000B4BF01224FF0FF3276100292BC421CDC27
:10438000DBF800200393D145D2F81880C7BF294637
:1043900022462A4621465846C047019A039BB61A30
:1043A000B1B236B2002E05DA029A1544009A5618B8
:1043B0002DB236B2013424B2E0E705B0BDE8F08F8B
:1043C000704710B404682469A4465DF8044B604744
:1043D00030B40468BDF808500295A46BA44630BC04
:1043E000604730B40468BDF808500295E46BA446F9
:1043F00030BC604770B4BDF90C50BDF81060046863
:10440000CDE90356246CA44670BC60472DE9F34106
:104410001C460368BDF820805B6905461646013CD2
:1044200034440F4624B298472B68CDF8048000949A
:104430009C6A28463B4632463946A0472B68DB6AD1
:10444000284602B0BDE8F04118472DE9F3411D466A
:104450000368BDF820805B69044617460E469847FE
:10446000CDE9007822686B1E3344956A20461BB262
:104470003A463146A8472368DB6A204602B0BDE8C9
:10448000F04118472DE9F3471E460368BDF928900F
:104490005B69BDF82C800C460546174698472644B4
:1044A000B4422B680BDACDF80080D3F820A0214667
:1044B0004B463A4628460134D04724B2F0E7DB6A3F
:1044C000284602B0BDE8F047184713B502680191CD
:1044D000B0F90E100091146CB0F90C3000221146A6
:1044E000A04702B010BD2DE9F3471D460368BDF893
:1044F0002C805B69BDF9289004460F461646984704
:104500002368CDF80080D3F824A032462B463946E4
:104510002046D0472368CDF8008009F1FF323244AD
:10452000D3F824A039462B46204612B2D047236840
:10453000CDF80080D3F820A032464B4639462046BD
:10454000D0476B1ED9192368CDF800801D6A20461C
:104550004B46324609B2A8472368DB6A204602B0C0
:10456000BDE8F047184770472DE9F74399421646D2
:10457000BDF92870BDF82C90026880460D461C4697
:1045800013D1BE42C8BF3346CDF82890C4BF3E46C3
:104590001F467B1C946B9B1B1BB232462946404630
:1045A000A44603B0BDE8F0436047BE420AD1994239
:1045B000C2BF0B4625461C46631CCDF82890D46B21
:1045C0005B1BE9E753699847CDE90079D8F80030DB
:1045D00040469F6A324623462946B847D8F80030FD
:1045E000DB6A404603B0BDE8F043184701F003031F
:1045F000B0F90A208376C907B0F9083059BF838122
:10460000C2818281C381704730B54281C281074A2D
:10461000074D0181002481814FF0FF31C0E905126F
:104620004460056004610477046230BD010100014B
:10463000D8760D002DE9F04F89B0CDE9021202685D
:10464000BDF948800493BDF94C3052690593BDF81B
:1046500050A00446904718F107024FF0000648BFEB
:1046600008F10E024FEAE20B01963546039B019AD0
:10467000BDF904109A18059B8B4212B227DD049BEA
:1046800033444FF0000906930FFA89F080451FFA72
:1046900089F117DD4F0705BF069BC0106D001D5C3B
:1046A00018BFEDB22B060AD5029B20680792194469
:1046B000836909B21F4620465346B847079A09F155
:1046C0000109E1E7019B013301935E44CEE72368D2
:1046D000DB6A204609B0BDE8F04F18472DE9F04FDE
:1046E0002DED028B91B01646026ABDF874809DF8DC
:1046F00078509DF87C4003911F46BDF870300493BC
:104700008346002A40F0C580B0F90C308B4240F35C
:104710004C81B0F90E30B34240F34781062313FBBE
:104720000513002B40F3418106EBC403002B40F33B
:104730003C81037F1BB9AF2F84BF0137FFB2DBF889
:10474000003058465B69984705220992002205927D
:10475000984A07EB8703D3180C93B3B20693059AD4
:104760000C9B9B5C0793ABB20B93BDF80C3008938A
:10477000039B02FB05F919FA83F90FFA89F308EE96
:10478000103A08230A93039B02EB030A4FF0000937
:104790000FFA8AFA079ADBF80030D20752D5012DBA
:1047A0001FFA89F23ED1012C3CD19B6906991F4624
:1047B000049B0A4412B251465846B84709F1010316
:1047C0004FFA83F9079B5B0807930A9B013B13F0A1
:1047D000FF030A93DED1059F01377BB20593099B46
:1047E000013B13F0FF030993B9D1049B43450FD05C
:1047F000012DDBF800303BD1012C39D10899CDF8DF
:10480000008005311C6A3246082309B25846A04789
:10481000DBF80030DB6A584611B0BDEC028BBDE816
:10482000F04F1847069914FB02F20A4404990191CB
:104830000094DB6918EE101A1F4612B22B46584638
:10484000B847BBE7049A4245B8D0012D1FFA89F258
:1048500007D1012C05D19B6906991F460A4443469E
:10486000A8E70699CDF8048014FB02F20A44DFE7BA
:104870000B9ACDF8048002EB8201089AE4000A4406
:1048800011460094DC6932462B4609B25846A047CF
:10489000BEE7137A516812680D92FF1AFFB201EB5E
:1048A000C70331F8372006929A780992DA780B928A
:1048B000012D93F9052093F906A00A9201D8012C45
:1048C00057D9BDF9283008930FFA8AF30793DBF81C
:1048D000003058465B699847B3B24FF000080E931A
:1048E0001AFA86F3C14647460F930B9B9F428FD21D
:1048F000079B0E9A3B4403FB0423002205920F9A68
:104900001BB202EB070A08EE103A0FFA8AFA434686
:10491000099A0599914241D25A1CD2B25B070C9276
:1049200007D1069B06990D9A01339BB212F80190AC
:10493000069319F0800F12D0012DDBF80030BDF87E
:104940000C101AD1012C18D10A9A9B691144059AAE
:1049500011441E465246049B09B25846B047059E74
:104960000136F3B24FEA490905935FFA89F90C9BC6
:10497000CEE70023CDE90733A9E70598089A02445A
:1049800002FB0511049ACDE90042DB6918EE102AFA
:104990001E4609B22B465846B047E0E7099B01374F
:1049A00098445FFA88F8FFB29FE711B0BDEC028B24
:1049B000BDE8F08FD0710D00F0B5026A85B00446F5
:1049C0000B46002A34D10A2908D1438A0282427E4A
:1049D00003EBC2036382012005B0F0BD0D29FAD0BC
:1049E000E17E007E657E71B1B4F91060062111FB95
:1049F0000061B4F90C60B142C1BFB4F91210228257
:104A000001EBC5026282E28A0192A28A0092CDE99C
:104A10000205B4F91220B4F910102046FFF75EFE2B
:104A2000237E228A03EB430302EB43032382D2E774
:104A30000A2907D100230382937A417E428A01FB2F
:104A40000323C7E70D29C6D0157AA942C3D3517AEB
:104A50009942C0D351685D1BEDB201EBC505AF783B
:104A60002FB3E97819B3E17E007E667E91B195F9A6
:104A700005103944B4F9107000FB0171B4F90C70E1
:104A8000B94207DD00272782B4F91210927A02FB9F
:104A900006126282E28A0192A28A0092CDE902069F
:104AA000B4F91220B4F910102046FFF717FE297947
:104AB000237E228A01FB0323B8E7012938BF0121A5
:104AC000017641767047000010B5064B036004463E
:104AD000006D08B100F068FD204600F087F8204620
:104AE00010BD00BF30770D0010B50446FFF7ECFF96
:104AF0002046702101F021FE204610BD30B585B062
:104B000004460D4601F0ECFD104A1149CDE90121A2
:104B10004FF0FF328021034600922046202200F011
:104B2000EBF80C4B23600023C4E9143504F1580062
:104B300000F03BF804F1600000F037F804F1680081
:104B400000F033F8204605B030BD00BF801A0600E3
:104B5000A086010030770D0013B50446503000F0F8
:104B60001BFD636DD90705D50222042104F158000D
:104B700000F02FF8636D9A0705D50022032104F198
:104B8000600000F026F8636D5B0705D50222114630
:104B900004F1680000F01DF8012300933C2202217B
:104BA000204600F0A9F902B010BD00210A22C0E998
:104BB00000127047002310B50446C171837188B29A
:104BC00001F04CFD08B10323A37100F0DDFC20606F
:104BD00010BD38B50C4605461146A0B201F014FDD3
:104BE00021462846BDE83840FFF7E4BF10B5044B26
:104BF00003600446C06A08B100F0A2FE204610BD62
:104C00003C7C0D0010B50446FFF7F0FF2046502114
:104C100001F093FD204610BD002910B54BDBB0F923
:104C20000C408C4247DD002A45DBB0F90E4094422F
:104C300041DD847E022C1FD0032C26D0012C04D110
:104C40000489D24314440A4621B2012B23D0022BFB
:104C500032D083BB002A13460489C06AB8BFD31D73
:104C6000DB1013FB041102F0070201239340425CA6
:104C700022EA030242541EE00489C94321444489C4
:104C8000D243224409B212B2DFE74489C9430C443B
:104C9000114622B2D9E7002A04891346B8BFD31DB2
:104CA000DB1013FB0411C36A02F0070001228240EB
:104CB000585C02435A5410BD002A13460489C06A46
:104CC000B8BFD31DDB1013FB041102F00702012350
:104CD00003FA02F2435C5A40CCE710B5044690F95F
:104CE0003600012180B201F0A0FC606A18B1BDE875
:104CF000104000F09CBE10BD70B504461D46002655
:104D0000FFF782FC114B2360666215B901F0E8FCE5
:104D10000546FF2384F8333084F836309DF910308F
:104D200084F837300A4BA363012384F83C30059B99
:104D3000A3644FF6FF72069BA286C4E90A56266456
:104D4000A4F84460E364204670BD00BF3C7C0D00C5
:104D500088770D00F8B50446806A0D4690B194F945
:104D6000301001F01BFBA06A036800219B68984784
:104D7000A06A036829469B689847A06ABDE8F84086
:104D800001F013BB94F93530014698B201F04DFCA7
:104D9000606A20B12946BDE8F84000F0CFBE082681
:104DA000802794F9330005EA070180B201F03DFC49
:104DB00094F93400012180B201F037FC94F93400F9
:104DC000002180B201F031FC013E4FEA5707E8D1E3
:104DD000F8BD38B50446806A0D4680B1A16C01F07B
:104DE000CFFA002D204614BFA721A621FFF7B2FF5E
:104DF000A06A88B1E16CBDE8384001F0C1BA606AD0
:104E000018B104F1380100F02BFE94F936000021AE
:104E100080B201F00AFCE4E72046BDE83840FFF725
:104E20005CBF2DE9F8430446806A0D468F1840B3F5
:104E300094F9301001F0B2FAA06A036800219B686F
:104E400098470126BD42A06A17D01F2E0CD901F049
:104E5000ACFA94F93010A06A01F0A0FAA06A0368D5
:104E600000219B6898470126A06A15F8011B03687A
:104E700001369B689847F6B2E4E7BDE8F84301F0D5
:104E800094BA94F93530014698B201F0CEFBAF42A6
:104E900022D0606A15F8019B18B1494600F04EFE19
:104EA000F5E708264FF0800894F9330009EA080175
:104EB00080B201F0BAFB94F93400012180B201F014
:104EC000B4FB94F93400002180B201F0AEFB013E46
:104ED0004FEA5808E8D1DAE7BDE8F883B0F90A30BC
:104EE000DA1D48BF03F10E02B0F90830C06AD210D3
:104EF0005A43002102F0F6B82DE9FF411E46C36A6D
:104F00009DF8288004460F461546B3B12046FFF7AA
:104F1000E5FFB4F90A00B4F9081020281FDC2023AB
:104F20000122CDE90132203873237339009300EB5D
:104F3000D070894B01EBD1711FE0B0F90A30D81D58
:104F400048BF03F10E00B4F90830C010584300F018
:104F5000EFFCE0620028D9D104B0BDE8F081402325
:104F60004FF0010CCDE9013C5223403852390093F7
:104F70007A4B00EBD07001EBD17140F34F0241F35B
:104F80004F012046FFF756FBA06A84F831700028D5
:104F900078D0002D74D1B4F90A30202B0CBF3C25F9
:104FA0003D2584F83050B8F1000F01D001F0ECF944
:104FB000FEB194F9370000281BDB012180B201F01B
:104FC00023FB94F93700012180B201F02EFB012070
:104FD00000F076FF94F93700002180B201F025FB44
:104FE0000A2000F06DFF94F93700012180B201F032
:104FF0001CFBA06A002874D0A16C01F0C1F9042246
:1050000057492046FFF70DFFA17A0139C9B2204662
:10501000FFF7A0FE534904222046FFF702FF94F950
:105020003130012B0CBF102114212046FFF792FED6
:1050300004224D492046FFF7F4FEA3684B4A9342F1
:105040005CD14B4904222046FFF7EBFED9212046D4
:10505000FFF780FE94F93130012B0CBF2221F121A2
:105060002046FFF777FE204642490622FFF7D9FE89
:10507000A06A002863D0E16C01F082F901206BE79F
:105080006DB28EE794F93500012180B201F0BCFACF
:1050900094F93600012180B201F0B6FA94F9360095
:1050A000012180B201F0C1FA656A3DB1B8F1000F8B
:1050B0003FF47EAF284600F0A9FC79E794F933006D
:1050C000012180B201F0A0FA94F93400012180B2EC
:1050D00001F09AFA94F93400294680B201F0A5FA59
:1050E00066E7606A18B104F1380100F0B9FC94F980
:1050F0003600002180B201F098FA80E71E4A934200
:105100000ED11E4903222046FFF78BFE94F9313061
:10511000012B0CBF9F21CF212046FFF71BFE95E7F7
:10512000174A934292D1174903222046FFF779FE8E
:1051300094F93130012B0CBF1021AF21ECE794F929
:105140003600012180B201F070FA606A002895D023
:1051500000F06DFC92E700BF547A0D0094770D00CB
:105160009C7C0D00A07C0D00A47C0D008000200024
:10517000AE7C0D00A87C0D0080004000B27C0D00CC
:1051800060001000B57C0D0070B5002ABDF810500D
:105190003DDBB0F90A40944239DD0029BEBF5B18FF
:1051A0001BB20021B0F90840CE18A642C4BF631A52
:1051B0001BB2002B2BDDC06AD61014FB0611014474
:1051C00002F0070001228240012DD2B216D0022D3A
:1051D0000BD0E5B9D243D2B20B44994217D011F8A3
:1051E000010B104001F8010CF7E70B4499420ED077
:1051F00011F8010B504001F8010CF7E70B449942FC
:1052000005D011F8010B104301F8010CF7E770BD50
:10521000F0B50029BDF8146076DBB0F90850A9425A
:1052200072DA002ABCBFD21813B2B0F90A40B8BF74
:105230000022D718A742C4BFA31A1BB2002B63DDFC
:10524000C2F3C404C76A15FB041112F00702DBB2F3
:1052500007EB010423D0C2F10802D2B22C4D9342D5
:105260003CBF4FF0FF0CA2EB030EAD5C3CBF4CFA11
:105270000EFC0CEA0505012E07D0022E2ED04EB9E9
:1052800017F801C02CEA050503E017F801C045EA4C
:105290000C057D54934237D3B0F908100C449A1A88
:1052A000D2B2072A0ED9022E1DD113462178C94346
:1052B0002170083BB0F90810DBB2072B0C44F5D87D
:1052C00002F0070202B3134B012E9B5C19D0022E91
:1052D0001BD0CEB9227822EA030314E017F801C0EC
:1052E00085EA0C05D5E7002E14BFFF2500251346DF
:1052F0002570083BB0F90810DBB2072B0C44F7D837
:10530000DEE7227813432370F0BD22785340FAE79A
:105310008C7C0D00947C0D0070B41446827EBDF828
:105320000C60022A0DD0032A18D0012A11D102895B
:10533000E443144424B203960A46214670BCFFF7A6
:1053400067BF42890589E44319441444691A24B2A9
:1053500009B20396224670BCFFF716BF458919446F
:10536000691A09B2E7E730B41446827EBDF80850E6
:10537000022A0DD0032A18D0012A11D1E21804897B
:10538000A41A24B202950A46214630BCFFF7FCBE9F
:105390000289C9431144E2184489A41A09B224B20B
:1053A0000295224630BCFFF733BF4289C9431144FE
:1053B00009B2E7E72DE9F8430446806A002842D0A5
:1053C000A16C00F0DDFF474905222046FFF729FDCB
:1053D000217A01392046C9B2FFF7BCFCB4F90A3082
:1053E000DE1D48BF03F10E06D4E90A052389F61035
:1053F00013FB06F615FA86F600283AD094F9301019
:1054000000F0CCFFA06A036840219B689847012701
:10541000B542A06A24D01F2F0CD900F0C6FF94F922
:105420003010A06A00F0BAFFA06A036840219B68B0
:1054300098470127A06A15F8011B036801379B688C
:105440009847FFB2E4E7606A18B104F1380100F050
:1054500007FB94F93600002180B201F0E6F8B2E7CC
:1054600000F0A3FFA06A78B3E16CBDE8F84300F058
:1054700087BF94F93500012180B201F0D6F8B5421A
:10548000F0D0606A15F8019B18B1494600F056FB50
:10549000F5E708274FF0800894F9330009EA08017E
:1054A00080B201F0C2F894F93400012180B201F019
:1054B000BCF894F93400002180B201F0B6F8013F45
:1054C0004FEA5808E8D1DAE794F93600012180B2B2
:1054D00001F0ABF8606A18B1BDE8F84300F0A7BA74
:1054E000BDE8F883B87C0D0008B5024B1B689B68CB
:1054F000019308BD6802030008B5024B1B68DB6816
:10550000019308BD6802030008B5024B1B685B6885
:10551000019308BD2C02030008B5024B1B689B6871
:10552000019308BD2C02030008B5024B1B68DB6821
:10553000019308BD2C02030008B5024B1B681B69D0
:10554000019308BD2C02030008B5024B1B685B6980
:10555000019308BD2C02030008B5024B1B681B6BAE
:10556000019308BD2C02030008B5024B1B685B6861
:10557000019308BD1802030008B5024B1B68DB68E5
:10558000019308BD1802030008B5024B1B685B6954
:10559000019308BD1802030008B5024B1B681B6B82
:1055A000019308BD4802030008B5024B1B685B6B02
:1055B000019308BD4802030008B5024B1B685B6CF1
:1055C000019308BD4802030008B5024B1B689B6CA1
:1055D000019308BD4802030008B5024B1B685B69D4
:1055E000019308BD6402030008B5024B1B681B68E9
:1055F000019308BD3C02030008B5024B1B68DB6841
:10560000019308BD3C02030008B5024B1B681B69EF
:10561000019308BD3C02030008B5024B1B685B699F
:10562000019308BD3C02030008B5024B1B689B694F
:10563000019308BD3C02030008B5024B1B68DB69FF
:10564000019308BD3C02030008B5024B1B681B6AAE
:10565000019308BD3C02030008B5024B1B689B6A1E
:10566000019308BD3C02030008B5024B1B681B6890
:10567000019308BD2802030008B5024B1B68DB68D4
:10568000019308BD2802030008B5024B1B689B6903
:10569000019308BD2802030008B5024B1B68DB69B3
:1056A000019308BD2802030008B5024B1B681B6A62
:1056B000019308BD2802030008B5024B1B685B6A12
:1056C000019308BD2802030008B5024B1B689B6AC2
:1056D000019308BD2802030008B5024B1B68DB6A72
:1056E000019308BD2802030008B5024B1B681B6B21
:1056F000019308BD2802030008B5024B1B685B6BD1
:10570000019308BD2802030008B5024B1B681B6CFF
:10571000019308BD2802030008B5024B1B681B68F3
:10572000019308BD3002030008B5024B1B685B699A
:10573000019308BD3002030008B5024B1B68DB690A
:10574000019308BD3002030008B5024B1B681B6AB9
:10575000019308BD3002030008B5024B1B685B6A69
:10576000019308BD3002030008B5024B1B68DB6BD8
:10577000019308BD3002030008B5024B1B681B6C87
:10578000019308BD3002030008B5024B1B685B6C37
:10579000019308BD3002030008B5024B1B681B686B
:1057A000019308BD4C02030008B5024B1B681B693E
:1057B000019308BD4C02030008B5024B1B685B69EE
:1057C000019308BD4C02030008B5024B1B689B699E
:1057D000019308BD4C02030008B5024B1B68DB694E
:1057E000019308BD4C02030008B5024B1B681B6AFD
:1057F000019308BD4C02030008B5024B1B685B6BAC
:10580000019308BD6002030008B5024B1B685B688A
:10581000019308BD2002030008B5024B1B685B69B9
:10582000019308BD2002030008B5024B1B68DB6A28
:10583000019308BD2002030008B5034B1B68D3F891
:105840008830019308BD00002002030008B5034B17
:105850001B68D3F89430019308BD000020020300B8
:1058600008B5024B1B685B68019308BD400203004A
:1058700008B5024B1B689B68019308BD40020300FA
:1058800008B5024B1B68DB68019308BD40020300AA
:1058900008B5024B1B681B69019308BD4002030059
:1058A00008B5024B1B685B69019308BD4002030009
:1058B00008B5024B1B689B69019308BD40020300B9
:1058C00008B5024B1B68DB69019308BD4002030069
:1058D00008B5024B1B681B6A019308BD4002030018
:1058E00008B5024B1B681B6B019308BD4002030007
:1058F00008B5024B1B685B6B019308BD40020300B7
:1059000008B5024B1B681B6C019308BD40020300E5
:1059100008B5024B1B685B6C019308BD4002030095
:1059200008B5024B1B68DB6B019308BD4402030002
:1059300008B5024B1B681B68019308BD1C020300DD
:1059400008B5024B1B685B68019308BD1C0203008D
:1059500008B5024B1B685B6A019308BD1C0203007B
:1059600008B5024B1B685B6C019308BD1C02030069
:10597000002240681146FFF7ABBF00224068114685
:10598000FFF7B6BF40680022FFF7AABF40680022B9
:1059900081F00101FFF794BF002340681A461946C1
:1059A000FFF786BF002340681A461946FFF778BF05
:1059B000002240681146FFF76BBF00224068114685
:1059C000FFF756BF406800220221FFF759BF0023AE
:1059D00040681A46FFF744BF024B03225A60024A4E
:1059E0001A60704754E60320C87C0D000021FFF7C1
:1059F000C3BE0021FFF7C8BE10B50446084621709B
:105A0000FFF79AFE00236360204610BD10B50446E0
:105A10000078FFF7EBFF48B920784FF6FF71FFF7EA
:105A20007BFE2078BDE81040FFF7E3BF10BD007893
:105A3000FFF7DFBF400830B51860002418688842BF
:105A4000E5B206D90134082C02D040081860F5E709
:105A50000725024B5B5D137030BD00BFFC7C0D0061
:105A60002DE9F04306468FB000780C46FFF7BEFFE5
:105A700000281BDB35781422002109A801F032FB35
:105A80000B23002209A92846ADF82430FFF764FE55
:105A90009DF82D3013B19DF82C5055B10027B94613
:105AA000B846012523795DB1C3B100200FB0BDE830
:105AB000F083DDF830809DF834909DF83570F1E783
:105AC000002B35D1A368434508D18DF820908DF87F
:105AD0002170BDF82020A3899A42E6D00023A16856
:105AE0008DF80F300A9804AB0DF10F02FFF7A2FFFB
:105AF000217985B989B9A36843450ED38DF82090E3
:105B00008DF82170BDF82020A3899A4205D1049B0D
:105B1000434502D1C9E70029F9D100230193637BF2
:105B200000939DF80F20237B3078FFF71DFEBCE724
:105B3000CDE900552B462A460121F5E708B5007846
:105B4000FFF7F2FDC0B208BD10B5094B094C0222A7
:105B500000201A60084B2060A080A071A360FFF7AE
:105B600053FE2046054A0649BDE8104000F0E0BD5E
:105B700068E603205CE603200000FFFFB0E5032099
:105B8000C5400D0010B50446006808B1FFF71CFDC4
:105B9000204610BD10B58368044613B103220146A8
:105BA0009847204610BD000010B5064C0023204643
:105BB0002360FFF701FD2046034A0449BDE8104079
:105BC00000F0B6BD6CE60320B0E50320855B0D0058
:105BD000F8B506460D468F180024BD420CD0336838
:105BE00015F8011B9B6830469847031E01DB1C44D7
:105BF000F3E7002C08BF1C462046F8BD13B5044649
:105C0000084659B1019101F099FA23680199DB68BE
:105C10000246204602B0BDE81040184702B010BD51
:105C200008B5FFF7EBFF08BD03689B68184738B558
:105C30000D210546FFF7F8FF0A2104462846FFF725
:105C4000F3FF204438BD38B50546FFF7D7FF0446BB
:105C50002846FFF7ECFF204438BD30B58BB0002359
:105C60008DF82430012A98BF0A2209AC0D46B1FBF9
:105C7000F2F101FB125303F0FF03092B94BF303301
:105C80003733DBB2AA4204F8013DEFD92146FFF7D2
:105C9000B5FF0BB030BD00002DE9F74F55EC104BB0
:105CA00006460F4610EE102A10EE100A2B46294623
:105CB00001F09EF940B153493046FFF79FFF8246FD
:105CC000504603B0BDE8F08F25F000494E4B4FF031
:105CD000FF322046494601F08BF948B94A4B4FF054
:105CE000FF322046494601F065F908B94749E3E724
:105CF000474B4FF060422046294601F06FF908B14A
:105D00004449D9E7444B4FF060422046294601F010
:105D100047F90028F4D1002200232046294601F04B
:105D20003FF9D0B12D213046FFF77EFF05F100434A
:105D300082461D463949DFF8EC904FF0000B0020F9
:105D40004FF000085FFA8BF39F4208D942464B465A
:105D500000F0DEFF0BF1010BF4E78246EAE7224692
:105D60002B4600F0F5FC0D46044601F07FF9804615
:105D700000F02AFE02460B462046294600F0E6FCCB
:105D80000A2204460D4630464146FFF766FF82442C
:105D900027B123493046FFF731FF8244DFF8849072
:105DA0004FF00008013FFFB2FF2F89D042464B461B
:105DB0002046294600F082FE04460D4601F02EF9E9
:105DC000B0F1000B1ADA2D213046FFF72DFFCBF191
:105DD000000103460A2230460193FFF73EFF019B74
:105DE00018448244584600F0FFFD02460B46204608
:105DF000294600F0ABFC04460D46D3E75946002384
:105E0000E8E700BF047D0D00FFFFEF7F087D0D0078
:105E1000FFFFEF410C7D0D00FFFFEFC10000E03FF1
:105E2000107D0D0000002440C9B2FFF735BF2DE9F9
:105E3000F04186B000AF05460E46381D14211446C9
:105E40003B60FFF785FD13280ED8391D2846FFF764
:105E5000D5FE04461EB12846FFF7E9FE044420465D
:105E60001837BD46BDE8F08100F1080323F00703B1
:105E7000E846ADEB030D2246411C3B686846FFF740
:105E800067FD69462846FFF7B9FE0446C546E1E7C7
:105E9000002340681A461946FFF702BD014B024A2B
:105EA0001A60704770E60320127D0D00024B1A68DD
:105EB000024B1A60704700BF44E5032074E60320DC
:105EC0000021FFF7A9BC10B50446FFF763FE20468A
:105ED00010BD00000348044A04490023836000F019
:105EE00027BC00BF78E60320B0E50320C75E0D00A5
:105EF000014B1860704700BF48E5032008B50B4B05
:105F000043B100F057F903681B699847002801DD89
:105F1000AFF30080064B43B100F0CAF903681B6978
:105F20009847002801DDAFF3008008BD00000000A5
:105F30000000000008B5FFF7E1FFFFF725FB014B6C
:105F4000186008BDD8E703200248034A0349121A23
:105F500001F0BAB800F4032004F40320707E0D00B1
:105F600007B5002300931A466FF07701FFF76EFC28
:105F700003B05DF804FB000007B543880A2B08D086
:105F8000502B0BD1094B1B684BB103B05DF804EBF0
:105F90001847FFF7E5FF03B05DF804FB002300930B
:105FA0001A466FF07701FFF751FCF4E78CE6032007
:105FB00038B5124C1248134D0021FFF7D1FC23686D
:105FC000AB42114B0CBF012200221A7002D0FFF726
:105FD000BBFF2560FFF7C8FA044601F08BF80B4BB6
:105FE00013B12046AFF3008000210848FFF798FC6A
:105FF000BDE8384006480021FFF71EBC00F403202E
:10600000F15E0D001E1C279A88E6032000000000A8
:10601000795F0D00704710B51821044600F08DFB24
:10602000204610BDF0B5037D062B8DB00E4600F165
:1060300004074FF0000412D000F1080515F8011D07
:106040000A223046FFF709FEAF42044419D0002C63
:10605000F4D02E213046FFF7E7FD0444EEE72F236E
:106060006A4639460A208DF80040FFF7B5FA6846BF
:1060700001F064F833680246DB68694630469847A9
:10608000044620460DB0F0BD10B5054B0446112264
:1060900040F8043B002101F025F8204610BD00BF68
:1060A0003C7D0D000346074A10B543F8042B01F16F
:1060B000100251F8044B43F8044B9142F9D10A788D
:1060C0001A7010BD3C7D0D0010B59DF8084044EAE3
:1060D000032343EA024242EA01610423416003755B
:1060E00010BD000013B5054B0360CB7800938B788F
:1060F0004A780978FFF7E8FF02B010BD3C7D0D003B
:1061000041747047704708B50021007CFFF75CFBC5
:1061100040EAE07008BD08B50121007CFFF754FBA0
:1061200040EAE07008BD08B5007CFFF745FB20EAB7
:10613000E07008BD08B5007CFFF736FB20EAE07090
:1061400008BD13B50446007C0191FFF735FB00281C
:10615000019901DC607C20B1207CFFF73DFB20EA47
:10616000E07002B010BD007CFFF73EBB10B51421FB
:10617000044600F0E2FA204610BD000010B54FF4CE
:106180007A73044608460021C4E90113044B2360D6
:106190000123207463741146FFF7FEFA204610BDF8
:1061A000507D0D0010B514220446002100F09AFF26
:1061B000204610BD10B5104C88B003A8FFF7F2FFC1
:1061C0002178BFF35B8F11F0010111D120460191BD
:1061D000FDF770FF019958B103AA0848FFF7CEFFF9
:1061E0002046FDF76CFF064A0649044800F0A0FA75
:1061F000024808B010BD00BF90E6032094E60320DB
:10620000B0E5032005610D0070474174704708B583
:10621000007CFFF721FA20EAE07008BD08B5007C99
:10622000FFF7F2F920EAE07008BD08B5007CFFF73F
:10623000FBF940EAE07008BD08B5007CFFF7ECF917
:1062400040EAE07008BD007CFFF7F6B937B5457C41
:1062500004462DB1207C03B0BDE83040FFF7CCB937
:10626000007C0191FFF7F8F900280199F2DC28463B
:1062700003B030BD10B51421044600F05EFA20468C
:1062800010BD000010B54FF0000C04460846114642
:106290004FF47A72C4E901C2044A226001222074D8
:1062A00062741A46FFF7A0F9204610BD807D0D00EC
:1062B00013B50E4C2178BFF35B8F11F0010112D1A1
:1062C00020460191FDF7F6FE019960B1084A094B9D
:1062D0000948FFF7D7FF2046FDF7F1FE074A0849B6
:1062E000054800F025FA044802B010BDA8E60320D6
:1062F000ACE6032030E70320B4E70320B0E5032039
:1063000009620D007047F8B5064615460C468F1811
:10631000BC4206D0336814F8011B9B68304698478E
:10632000F6E72846F8BD007C0022FFF7BDB9007CE7
:106330000021FFF7C1B9007C0021FFF7C5B9007C3F
:106340000021FFF7C9B9007C0021FFF7CDB910B5D6
:106350001421044600F0F1F9204610BD10B54FF4A9
:106360007A73044608460021C4E90113034B2360F5
:1063700020741146FFF7C8F9204610BDB07D0D000E
:10638000007C0022FFF770B90023007C1A461946F2
:10639000FFF772B9007C0022FFF776B9C9B2FFF7A8
:1063A000F9BF007C0022FFF777B90121FFF7F9BFA1
:1063B000002240681146FFF76BBA00224068114680
:1063C000FFF786BA002240681146FFF791BA40688D
:1063D0000022FFF785BA4068002281F00101FFF733
:1063E0006FBA002340681A461946FFF761BA0022C7
:1063F00040681146FFF73CBA406800220221FFF7CF
:106400003FBA002340681A46FFF72ABA024B04221B
:106410005A60024A1A607047C8E70320D87D0D0011
:10642000002340681A46FFF71BBA40680022022189
:10643000FFF726BA002240681146FFF719BA00227A
:1064400040681146FFF724BA002340681A461946EF
:10645000FFF726BA002340681A461946FFF728BA04
:1064600040680021FFF74CBA40680021FFF750BA9E
:106470004068002281F00101FFF722BA4068002243
:10648000FFF72EBA002240681146FFF731BA00220A
:1064900040681146FFF71CBA2DE9F043002495B07F
:1064A00016460D460746FFF7EFFD214618220EA8B7
:1064B000009400F017FE4023CDE90C3421466B46D2
:1064C0000CAA3046FFF718F8044600284CD10246C3
:1064D00001216868FFF7DCF90221804622466868DE
:1064E000FFF7D6F9009E81462146002E3CD00029B8
:1064F0003AD17368022B03D00A2B11D0F669F4E766
:10650000B8F1000F0AD0716906A8043107ADFFF792
:10651000E9FD0FCD3C1D0FC42B6823704146EDE70C
:10652000B9F1000F01D14946E8E77469102201A8CA
:1065300000F0D8FD06238DF8143001AD04F10803F6
:106540001834186859682A4603C20833A34215460E
:10655000F7D101A906A807ADFFF7A4FD0FCD3C1D9B
:106560000FC42B682370DEE70098FEF7BDFF3846A6
:1065700015B0BDE8F0830000024B034A1A60002208
:106580005A607047D0E70320147E0D00232813B50E
:1065900002D9002002B010BDA0F10B03022B1AD8C3
:1065A000174C2178BFF35B8F11F001010BD120460E
:1065B0000191FDF77FFD019928B11248FFF71CFA00
:1065C0002046FDF77CFD0F4B1878FFF7BDF800283B
:1065D000DFD10120DEE7012809D800F081F8002191
:1065E000007CFFF789F880F00100C0B2D2E70938DB
:1065F0000128EED8FFF75CFE007CFFF725F8F2E7F4
:1066000048E603204CE60320232838B504460D460F
:106610000AD8FF2908D0FFF7B9FF28B1294620463C
:10662000BDE83840FEF778BF38BD38B504460D46A2
:10663000FEF77AFFFF2810D0062804D84D2323FA4E
:1066400000F0C30709D42046FFF7A0FF28B1294670
:106650002046BDE83840FEF76FBF38BD10B5044690
:10666000FEF762FF031FDBB2012B08D92046FFF7BC
:106670008DFF20B12046BDE81040FEF765BF002029
:1066800010BD0D2810B504469CBF0E34A4B22046A0
:10669000FFF77CFF50B103212046FEF735FF0328AA
:1066A00004D12046BDE81040FEF756BF002010BDC3
:1066B00038B50023202543801423044603808560D9
:1066C00005610649284600F03AF80449606028460A
:1066D00000F035F8E060204638BD00BF487E0D0070
:1066E00030B50F4D2978BFF35B8F11F0010487B0EF
:1066F00013D12846FDF7DEFC78B101A8FFF7D8FFDB
:1067000001AA21460748FFF729FE2846FDF7D7FCD6
:10671000054A0649034800F00BF8024807B030BDAF
:10672000DCE70320E0E70320B0E5032005630D006C
:106730000B460146184600F0B9BCFDF7AEBCFDF7AC
:10674000AABC000081F0004102E000BF83F00043DA
:1067500030B54FEA41044FEA430594EA050F08BFFC
:1067600090EA020F1FBF54EA000C55EA020C7FEAC0
:10677000645C7FEA655C00F0E2804FEA5454D4EB3D
:106780005555B8BF6D420CDD2C4480EA020281EA07
:10679000030382EA000083EA010180EA020281EA3F
:1067A0000303362D88BF30BD11F0004F4FEA013191
:1067B0004FF4801C4CEA113102D0404261EB4101A0
:1067C00013F0004F4FEA03334CEA133302D0524226
:1067D00063EB430394EA050F00F0A780A4F10104E2
:1067E000D5F1200E0DDB02FA0EFC22FA05F280181C
:1067F00041F1000103FA0EF2801843FA05F3594102
:106800000EE0A5F120050EF1200E012A03FA0EFC80
:1068100028BF4CF0020C43FA05F3C01851EBE371AA
:1068200001F0004507D54FF0000EDCF1000C7EEBC7
:1068300000006EEB0101B1F5801F1BD3B1F5001F05
:106840000CD349085FEA30004FEA3C0C04F1010424
:106850004FEA445212F5800F80F09A80BCF1004F4D
:1068600008BF5FEA500C50F1000041EB045141EACF
:10687000050130BD5FEA4C0C404141EB0101013C98
:1068800028BFB1F5801FE9D291F0000F04BF014687
:106890000020B1FA81F308BF2033A3F10B03B3F159
:1068A00020020CDA0C3208DD02F1140CC2F10C02E9
:1068B00001FA0CF021FA02F10CE002F11402D8BF47
:1068C000C2F1200C01FA02F120FA0CFCDCBF41EA13
:1068D0000C019040E41AA2BF01EB0451294330BDE2
:1068E0006FEA04041F3C1CDA0C340EDC04F11404BF
:1068F000C4F1200220FA04F001FA02F340EA030096
:1069000021FA04F345EA030130BDC4F10C04C4F1DB
:10691000200220FA02F001FA04F340EA03002946BB
:1069200030BD21FA04F0294630BD94F0000F83F405
:10693000801306BF81F480110134013D4EE77FEAE8
:10694000645C18BF7FEA655C29D094EA050F08BF34
:1069500090EA020F05D054EA000C04BF1946104615
:1069600030BD91EA030F1EBF0021002030BD5FEA59
:10697000545C05D14000494128BF41F0004130BD81
:1069800014F580043CBF01F5801130BD01F00045D5
:1069900045F0FE4141F470014FF0000030BD7FEA48
:1069A000645C1ABF194610467FEA655C1CBF0B4643
:1069B000024650EA013406BF52EA033591EA030F5A
:1069C00041F4002130BD00BF90F0000F04BF002152
:1069D000704730B54FF4806404F132044FF0000585
:1069E0004FF0000150E700BF90F0000F04BF0021FE
:1069F000704730B54FF4806404F1320410F0004564
:106A000048BF40424FF000013EE700BF42004FEA5E
:106A1000E2014FEA31014FEA02701FBF12F07F43DB
:106A200093F07F4F81F06051704732F07F4208BF92
:106A3000704793F07F4F04BF41F40021704730B599
:106A40004FF4607401F0004521F000411CE700BFE5
:106A500050EA010208BF704730B54FF000050AE068
:106A600050EA010208BF704730B511F0004502D569
:106A7000404261EB41014FF4806404F132045FEA6B
:106A8000915C3FF4D8AE4FF003025FEADC0C18BF14
:106A900003325FEADC0C18BF033202EBDC02C2F106
:106AA000200300FA03FC20FA02F001FA03FE40EA98
:106AB0000E0021FA02F11444BDE600BF70B54FF09C
:106AC000FF0C4CF4E06C1CEA11541DBF1CEA13557A
:106AD00094EA0C0F95EA0C0F00F0DEF82C4481EAE2
:106AE000030621EA4C5123EA4C5350EA013518BF02
:106AF00052EA033541F4801143F4801338D0A0FBEF
:106B000002CE4FF00005E1FB02E506F00042E0FB9B
:106B100003E54FF00006E1FB03569CF0000F18BFA1
:106B20004EF0010EA4F1FF04B6F5007F64F5407449
:106B300004D25FEA4E0E6D4146EB060642EAC621DC
:106B400041EA55514FEAC52040EA5E504FEACE2E49
:106B5000B4F1FD0C88BFBCF5E06F1ED8BEF1004F4C
:106B600008BF5FEA500E50F1000041EB045170BDC8
:106B700006F0004646EA010140EA020081EA03010C
:106B8000B4EB5C04C2BFD4EB0C0541EA045170BD08
:106B900041F480114FF0000E013C00F3AB8014F182
:106BA000360FDEBF002001F0004170BDC4F10004CB
:106BB000203C35DA0C341BDC04F11404C4F120054C
:106BC00000FA05F320FA04F001FA05F240EA0200A7
:106BD00001F0004221F0004110EBD37021FA04F6DD
:106BE00042EB06015EEA430E08BF20EAD37070BD97
:106BF000C4F10C04C4F1200500FA04F320FA05F0F6
:106C000001FA04F240EA020001F0004110EBD370F7
:106C100041F100015EEA430E08BF20EAD37070BD67
:106C2000C4F1200500FA05F24EEA020E20FA04F340
:106C300001FA05F243EA020321FA04F001F00041EF
:106C400021FA04F220EA020000EBD3705EEA430E60
:106C500008BF20EAD37070BD94F0000F0FD101F08F
:106C60000046400041EB010111F4801F08BF013CC8
:106C7000F7D041EA060195F0000F18BF704703F006
:106C80000046520043EB030313F4801F08BF013D8D
:106C9000F7D043EA0603704794EA0C0F0CEA135549
:106CA00018BF95EA0C0F0CD050EA410618BF52EA03
:106CB0004306D1D181EA030101F000414FF0000009
:106CC00070BD50EA410606BF1046194652EA430617
:106CD00019D094EA0C0F02D150EA013613D195EA8B
:106CE0000C0F05D152EA03361CBF104619460AD1D3
:106CF00081EA030101F0004141F0FE4141F47001DD
:106D00004FF0000070BD41F0FE4141F4780170BDCC
:106D100070B54FF0FF0C4CF4E06C1CEA11541DBF31
:106D20001CEA135594EA0C0F95EA0C0F00F0A7F833
:106D3000A4EB050481EA030E52EA03354FEA013160
:106D400000F088804FEA03334FF0805545EA131373
:106D500043EA12634FEA022245EA111545EA10653B
:106D60004FEA00260EF000419D4208BF964244F1D2
:106D7000FD0404F5407402D25B084FEA3202B61AF1
:106D800065EB03055B084FEA32024FF480104FF4C5
:106D9000002CB6EB020E75EB030E22BFB61A754639
:106DA00040EA0C005B084FEA3202B6EB020E75EBCC
:106DB000030E22BFB61A754640EA5C005B084FEA34
:106DC0003202B6EB020E75EB030E22BFB61A754601
:106DD00040EA9C005B084FEA3202B6EB020E75EB0C
:106DE000030E22BFB61A754640EADC0055EA060ECD
:106DF00018D04FEA051545EA16754FEA06164FEA10
:106E0000C30343EA52734FEAC2025FEA1C1CC0D1BB
:106E100011F4801F0BD141EA00014FF000004FF048
:106E2000004CB6E711F4801F04BF01430020B4F109
:106E3000FD0C88BFBCF5E06F3FF6AFAEB5EB030CC1
:106E400004BFB6EB020C5FEA500C50F1000041EBBE
:106E5000045170BD0EF0004E4EEA113114EB5C048B
:106E6000C2BFD4EB0C0541EA045170BD41F480115E
:106E70004FF0000E013C90E645EA060E8DE60CEA66
:106E8000135594EA0C0F08BF95EA0C0F3FF43BAF83
:106E900094EA0C0F0AD150EA01347FF434AF95EA3A
:106EA0000C0F7FF425AF104619462CE795EA0C0F1E
:106EB00006D152EA03353FF4FDAE1046194622E7EB
:106EC00050EA410618BF52EA43067FF4C5AE50EAC5
:106ED00041047FF40DAF52EA43057FF4EBAE12E7B5
:106EE0004FF0FF3C06E000BF4FF0010C02E000BF96
:106EF0004FF0010C4DF804CD4FEA410C7FEA6C5C79
:106F00004FEA430C18BF7FEA6C5C1BD001B050EA1B
:106F1000410C0CBF52EA430C91EA030F02BF90EA06
:106F2000020F0020704710F1000F91EA030F58BFC5
:106F3000994208BF90422CBFD8176FEAE37040F027
:106F4000010070474FEA410C7FEA6C5C02D150EAC5
:106F5000013C07D14FEA430C7FEA6C5CD6D152EA80
:106F6000033CD3D05DF8040B704700BF8446104645
:106F700062468C461946634600E000BF01B5FFF744
:106F8000B7FF002848BF10F1000F01BD4DF808ED14
:106F9000FFF7F4FF0CBF012000205DF808FB00BFE5
:106FA0004DF808EDFFF7EAFF34BF012000205DF83F
:106FB00008FB00BF4DF808EDFFF7E0FF94BF01208C
:106FC00000205DF808FB00BF4DF808EDFFF7CEFF8D
:106FD00094BF012000205DF808FB00BF4DF808EDCC
:106FE000FFF7C4FF34BF012000205DF808FB00BF9D
:106FF0004FEA410C7FEA6C5C02D150EA013C0AD1B5
:107000004FEA430C7FEA6C5C02D152EA033C02D1A6
:107010004FF0000070474FF0010070474FEA410207
:1070200012F5001215D211D56FF47873B3EB6252DA
:1070300012D94FEAC12343F0004343EA505311F001
:10704000004F23FA02F018BF404270474FF0000093
:10705000704750EA013005D111F0004008BF6FF0D1
:10706000004070474FF00000704700BF4A0011D247
:1070700012F5001211D20DD56FF47873B3EB625292
:107080000ED44FEAC12343F0004343EA505323FA9E
:1070900002F070474FF00000704750EA013002D113
:1070A0004FF0FF3070474FF00000704710B5054CAF
:1070B00013462CB10A4601460220AFF3008010BDF2
:1070C0002046FCE7000000000A44914200F1FF3333
:1070D00000D1704710B511F8014B03F8014F9142F0
:1070E000F9D110BD02440346934200D1704703F822
:1070F000011BF9E738B50D4B1D68AB6B04467BB936
:107100001820FEF715FC0A4A0A4BA863C0E90023C1
:10711000094B83600B23838101220023C0E90423F0
:10712000AB6B00221C615A6138BD00BF48E50320EB
:107130000E33CDAB34126DE6ECDE0500034613F8DA
:10714000012B002AFBD1181A0138704721400D008D
:107150005D400D0085400D0089400D0000000000DD
:1071600048656C6C6F2C20776F726C6421004365EE
:107170006C736975733A200020430046616872653C
:107180006E686569743A2000204620006465666177
:10719000756C7420004D5342004C5342003C5350D8
:1071A0004953657474696E67732064656661756CB4
:1071B000743E003C53504953657474696E67732084
:1071C00025732575202573204D4F444525753E00B8
:1071D00000000000003E5B4F5B3E3E6B4F6B3E1C71
:1071E0003E7C3E1C183C7E3C181C577D571C1C5E88
:1071F0007F5E1C00183C1800FFE7C3E7FF0018245F
:107200001800FFE7DBE7FF30483A060E2629792908
:1072100026407F050507407F05253F5A3CE73C5A3D
:107220007F3E1C1C08081C1C3E7F14227F22145F1A
:107230005F005F5F06097F017F006689956A606075
:1072400060606094A2FFA29408047E040810207E6F
:10725000201008082A1C08081C2A08081E101010F4
:10726000100C1E0C1E0C30383E3830060E3E0E063A
:10727000000000000000005F00000007000700148D
:107280007F147F14242A7F2A12231308646236494C
:107290005620500008070300001C22410000412234
:1072A0001C002A1C7F1C2A08083E08080080703039
:1072B00000080808080800006060002010080402A8
:1072C0003E5149453E00427F4000724949494621AE
:1072D00041494D331814127F1027454545393C4A22
:1072E0004949314121110907364949493646494939
:1072F000291E000014000000403400000008142281
:1073000041141414141400412214080201590906EE
:107310003E415D594E7C1211127C7F494949363EEF
:10732000414141227F4141413E7F494949417F09D5
:107330000909013E414151737F0808087F00417FE0
:1073400041002040413F017F081422417F404040DE
:10735000407F021C027F7F0408107F3E4141413E76
:107360007F090909063E4151215E7F0919294626F8
:107370004949493203017F01033F4040403F1F20FC
:1073800040201F3F4038403F6314081463030478D3
:1073900004036159494D43007F41414102040810F3
:1073A00020004141417F040201020440404040402E
:1073B000000307080020545478407F28444438389C
:1073C00044444428384444287F385454541800080E
:1073D0007E090218A4A49C787F0804047800447DE8
:1073E00040002040403D007F1028440000417F4085
:1073F000007C047804787C080404783844444438D9
:10740000FC1824241818242418FC7C0804040848B8
:107410005454542404043F44243C4040207C1C2009
:1074200040201C3C4030403C44281028444C909064
:10743000907C4464544C44000836410000007700BE
:1074400000004136080002010204023C2623263CCB
:107450001EA1A161123A4040207A38545455592156
:10746000555579412254547842215554784020543E
:107470005579400C1E52721239555555593954548C
:10748000545939555454580000457C410002457DFB
:10749000420001457C407D1211127DF0282528F024
:1074A0007C545545002054547C547C0A097F493251
:1074B000494949323A4444443A324A4848303A41C8
:1074C00041217A3A42402078009DA0A07D3D424271
:1074D000423D3D4040403D3C24FF2424487E4943FA
:1074E000662B2FFC2F2BFF0929F620C0887E09036D
:1074F00020545479410000447D413048484A323894
:107500004040227A007A0A0A727D0D19317D2629BF
:10751000292F28262929292630484D4020380808B7
:10752000080808080808382F10C8ACBA2F102834EB
:10753000FA00007B000008142A142222142A1408DE
:107540005500550055AA55AA55AAFF55FF55FF00ED
:107550000000FF00101010FF00141414FF001010A2
:10756000FF00FF1010F010F0141414FC001414F7B6
:1075700000FF0000FF00FF1414F404FC14141710A3
:107580001F10101F101F1414141F00101010F000F3
:107590000000001F101010101F10101010F010002D
:1075A0000000FF101010101010101010FF1000003D
:1075B00000FF140000FF00FF00001F10170000FC78
:1075C00004F414141710171414F404F40000FF004A
:1075D000F714141414141414F700F71414141714D3
:1075E00010101F101F141414F4141010F010F000D9
:1075F000001F101F0000001F14000000FC140000FA
:10760000F010F01010FF10FF141414FF14101010DD
:107610001F00000000F010FFFFFFFFFFF0F0F0F090
:10762000F0FFFFFF0000000000FFFF0F0F0F0F0F24
:107630003844443844FC4A4A4A347E020206060270
:107640007E027E0263554941633844443C04407ED7
:10765000201E2006027E020299A5E7A5991C2A4950
:107660002A1C4C7201724C304A4D4D3030487848DB
:1076700030BC625A463D3E494949007E0101017EC7
:107680002A2A2A2A2A44445F444440514A4440401A
:10769000444A51400000FF0103E080FF0000080859
:1076A0006B6B083612362436060F090F06000018D9
:1076B000180000001010003040FF0101001F010100
:1076C0001E00191D1712003C3C3C3C00000000004D
:1076D00000000000000000000000000000000000AA
:1076E000B9490D00D15B0D00A1400D00C1430D0053
:1076F000C3430D00F5430D00D1430D00E3430D00DE
:1077000005430D00C1430D00ED450D0067450D001B
:107710000D440D004B440D0085440D00CB440D007D
:1077200069450D00E7440D00000000000000000066
:10773000C94A0D00E94A0D00B9490D00D15B0D00A1
:10774000194C0D00C1430D00C3430D00F5430D005E
:10775000D1430D00E3430D0005430D00C1430D006F
:10776000ED450D00D34D0D0067530D0019530D006D
:1077700085440D00CB440D0069450D00E7440D0024
:107780000000000000000000B1420D0085420D0025
:1077900087420D0000000000000180000000000092
:1077A000000000000380000000000000000000074F
:1077B000C000000000000000000007C00000000042
:1077C00000000000000FC0000000000000000000EA
:1077D0001FE00000000000000000001FE0000000AB
:1077E0000000000000003FE000000000000000007A
:1077F000003FF00000000000000000007FF00000EB
:1078000000000000001FF87FF000000000000000F2
:107810003FFE7FF0000000000000003FFF7FF0000F
:107820000000000000001FFFFBE00000000000005F
:10783000000FFFF9FFC00000000000000FFFF9FF7C
:10784000F800000000000007FFF1FFFF000000004B
:10785000000003FC73FFFF80000000000001FE3FFA
:10786000FFFF80000000000000FF1E0FFF0000006F
:10787000000000007FFE1FFC000000000000003F31
:10788000FFFFF8000000000000000FDFFFE0000035
:1078900000000000001F19FFC000000000000000F1
:1078A0003F3CFF00000000000000007E7CF800006C
:1078B0000000000000007FFE7C00000000000000CF
:1078C00000FFFFFC0000000000000000FFFFFE00C2
:1078D00000000000000000FFFFFE000000000000AC
:1078E0000001FFEFFE0000000000000001FFCFFEDE
:1078F0000000000000000003FF07FE000000000081
:10790000000003FC07FE0000000000000003F0037D
:10791000FE00000000000000018000FE00000000EA
:107920000000000000007E000000000000000000D9
:10793000003E000000000000000000000C000000FD
:10794000000000078000FC000003C000000007806A
:1079500001FC000003C0000000078001FC000003E0
:10796000C0000000078001E00000001E00000007CA
:107970008001E00000001E007FE3F79FF9FDE7783B
:107980007BDFC0FFF7FFBFFDFDFF787BDFC0FFF7A8
:10799000FFBFFDFDFF787BDFC0F0F787BC3DE1FF57
:1079A000787BDE00F0F787BC3DE1F0787BDE0000FD
:1079B000F787803DE1E0787BDE007FF7879FFDE180
:1079C000E0787BDE00FFF787BFFDE1E0787BDE003B
:1079D000F0F787BC3DE1E0787BDE00F0F787BC3D47
:1079E000E1E0787BDE00F0F787BC3DE1E0787BDE0C
:1079F00000FFF7FFBFFDE1E07FFBDFC0FFF7FFBF48
:107A0000FDE1E07FFBDFC07CF3F39F3DE1E03E7BE7
:107A1000CFC00000000000000000000000FFFFFFDA
:107A2000FFFFFFFFFFFFFFC0FFFFFFFFFD68DB1150
:107A30001A31C0FFFFFFFFFD2B5AFB6AEFC0FFFFAB
:107A4000FFFFFD4B5B3B1A33C0FFFFFFFFFD6B5B8E
:107A5000DB6AFDC0000060000000000000000000C4
:107A60000000000000E00000000000000000000036
:107A700000000001E0000000000000000000000025
:107A8000000001F000000000000000000000000005
:107A90000003F000000000000000000000000000F3
:107AA00007F00000000000000000000000000007D8
:107AB000F8000000000000000000000000000FF8C7
:107AC00000000003C0007E000001E0007F0FF8000E
:107AD000000003C000FE000001E000FFEFF800001E
:107AE0000003C000FE000001E000FFFFF8000000FE
:107AF00003C000F00000000F007FFE7FC000000305
:107B0000C000F00000000F003FFE7FF83FF1FBCF08
:107B1000FCFEF3BC3DEFE01FFE7FFF7FFBFFDFFEBF
:107B2000FEFFBC3DEFE01FC6FFFF7FFBFFDFFEFE59
:107B3000FFBC3DEFE00FE3C7FE787BC3DE1EF0FF26
:107B4000BC3DEF0007FF87FC787BC3DE1EF0F83CEE
:107B50003DEF0001FFFFF0007BC3C01EF0F03C3D95
:107B6000EF0001F37FE03FFBC3CFFEF0F03C3DEFC1
:107B70000003E33F807FFBC3DFFEF0F03C3DEF00FE
:107B800007E73C00787BC3DE1EF0F03C3DEF0007CA
:107B9000FFBE00787BC3DE1EF0F03C3DEF0007FF28
:107BA000FE00787BC3DE1EF0F03C3DEF000FFFFED1
:107BB000007FFBFFDFFEF0F03FFDEFE00FFFFF0077
:107BC0007FFBFFDFFEF0F03FFDEFE00FF9FF003E2F
:107BD00079F9CF9EF0F01F3DE7E01FF1FF000000B4
:107BE0000000000000000000001F80FF007FFFFF7A
:107BF000FFFFFFFFFFFFFFE01C007F007FFFFFFF95
:107C0000FEB46D888D18E000001F007FFFFFFFFEAF
:107C100095AD7DB577E000000F007FFFFFFFFEA56B
:107C2000AD9D8D19E0000006007FFFFFFFFEB5ADA2
:107C3000EDB57EE00000000000000000ED4B0D00FF
:107C4000054C0D00B9490D00D15B0D00194C0D001C
:107C5000C1430D00C3430D00F5430D00D1430D009A
:107C6000E3430D0005430D00C1430D00ED450D003C
:107C7000D34D0D0067530D0019530D0085440D00C1
:107C8000CB440D0069450D00E7440D000080C0E0C5
:107C9000F0F8FCFE000103070F1F3F7FAED580A860
:107CA000D300408D2000A1C8DB40A4A62EAFDA028D
:107CB000818FDA1281DA02812200FF2100000000A8
:107CC0000000000000000000CF590D00C5590D0054
:107CD000BB590D00B1590D00A5590D0099590D0062
:107CE00061640D0069640D008D590D0085590D000A
:107CF0007B590D0071590D0099640D000008101892
:107D0000202830386E616E00696E66006F766600FE
:107D10002E006170700025592D256D2D2564542588
:107D2000483A254D3A2553257A0061736374696D8D
:107D300065000000000000000000000025600D004C
:107D400015600D0017600D0000000000000000002D
:107D500005610D006D610D0043610D00D15B0D00EB
:107D600035610D0007610D0017610D0067610D00A1
:107D700027610D0001610D000000000000000000FF
:107D800009620D0075620D004D620D00D15B0D00A2
:107D90001D620D0039620D002B620D0047620D005F
:107DA0000B620D000F620D000000000000000000DB
:107DB00005630D004F630D0027630D0007630D0081
:107DC0002F630D0037630D003F630D0047630D0007
:107DD000000000000000000003640D00F9630D00C6
:107DE000EF630D00B1630D00915E0D00E3630D00C4
:107DF00061640D0069640D00D7630D00CF630D0051
:107E0000C5630D00BB630D0099640D000000000008
:107E10000000000021640D002B640D0035640D008E
:107E20003F640D0049640D0055640D0061640D0050
:107E300069640D0071640D007D640D0085640D00A2
:107E40008F640D0099640D00000000002D420D00AC
:107E5000D9590D00495B0D00A95B0D009D5E0D0019
:107E6000AD5E0D00D55E0D000D640D0079650D0051
:047E7000000000000E
:107E74002A7D0D004CE503200000000000000000F6
:107E840000000000000000000000000000000000EE
:107E940000000000000000000000000000000000DE
:107EA40000000000000000000000000000000000CE
:107EB40000000000000000000000000000000000BE
:107EC40000000000000000000000000000000000AE
:087ED4000000000000000000A6
:107EDC00FFFFFFFF00000102030405060708090A63
:107EEC000B0C0D0E0F101112131415161718191A5E
:087EFC001B1C1D1E1F202800A5
:047F04007856341265
:04000003D0004020C9
:00000001FF
